:100016000106011501260137014A015D01710188BA
:10002600019F01B801D201EE0002040507090B0188
:1000360002040810204017041804190217031501BA
:1000460016041704180217031601100210031103F1
:1000560015030F03150317031803170216031601DA
:1000660017041804190219031902150315031A03B4
:1000760019021803170116041704180318031A03A4
:1000860019671904190319171A041A041A031B030A
:100096001F031903190317031A0219021804190476
:1000A6001A0218031615190419041903180317035D
:1000B6001566151615031A661A031A031A04190487
:1000C60018021903190317031803190118661803F0
:1000D6001803180417041602190316031703180346
:1000E600176615031A021A031B031F031F041B04BA
:1000F6001A021B031F031B0319031A011803180214
:100106001903180318041704160216021A021B0311
:100116001F041B041B031A031A03196619011F0285
:100126001F671F041F011B021A671B041A0118030D
:100136001803180319031A031A031A021966170477
:1001460018041915190419041903190319031903B5
:100156001A031B031F021F671F041F011B021A67D6
:100166001B041A0118031803180319031A031A03A8
:100176001A021A031B031F021B671F04201619020B
:100186001F0320661F031F011F011F1600000F011A
:100196001502160217661803170215021601150234
:1001A600100215000F011502160217021703180395
:1001B600190215021866170319021603170316000B
:1001C600170119021B021B701A031A0119021903DF
:1001D6001A031B021A0D19031700186618031902D1
:1001E6001A02190C180D1703160111021103100338
:1001F6000F0C100215001F011A01186619031A01C7
:100206001B021B031B031B0C1A0D190317001F01EE
:100216001A01186619031A011002100310031A0CAA
:10022600180D170316000F01150216021770180392
:100236001702150315031666160316021603150391
:10024600100210011101116610030F0C1A02190297
:100256001603160318661803180217031603190067
:1002660000001504150415041504150415041504D9
:1002760015041504110415041104111716041604A7
:100286001604160416041604160416041604160498
:100296000F04160415041517150415041504150482
:1002A6001604170417181504150415041504160466
:1002B6001704170417151704180417041604157BDA
:1002C6001704170417041704170417041704170450
:1002D6001704170416041904160416171604160430
:1002E60019041904170417041A041A041903160426
:1002F60016041567160315041604160415041504CA
:1003060016041603170418041804190317041615FF
:100316001704180419041504150215041504160407
:1003260016041602170418041904150416021604F6
:1003360016041704170417011003110415041504F5
:100346001767170316041904160416031604160372
:1003560017041704170217021704180419041504C2
:1003660016021604170416041604160211041504C0
:10037600160411041A0319041904190416031604A1
:100386001504157B17041804170315041504150422
:100396001603177C150415041104110315151967A6
:1003A6001F041F041B041B04190419020F661704FB
:1003B600180419671F041F041B041B0419041901E0
:1003C60015671604160317041804190418041704ED
:1003D6001F041F03190423042301190115011967BA
:1003E6001804170418041904150415011516170422
:1003F60018041703150415041504166715030F666C
:10040600150311031603150315011B031A0319031C
:1004160018031901190100001002176717041504C3
:10042600110410030F030D040F0410031104150427
:100436001604150411030F0110021767170415049B
:10044600110410030F030D040F0410031104150407
:10045600160415041103100110021767170415047A
:10046600110410030F030D040F04100311041504E7
:100476001604150411030F0110021766170415045C
:10048600110410030F030D040F04100311041504C7
:100496001604150411031001170219671704160232
:1004A60017021502160211020F0217021967170426
:1004B600160217021502160211021502100217671C
:1004C60017041504110410030F030D040F04100381
:1004D600110415041603150411040F011002176701
:1004E60017041504110410030F030D040F04100361
:1004F60011041504160315041104100110021767E0
:1005060017041504110410030F030D040F04100340
:10051600110415041603150411040F0110021767C0
:1005260017041504110410030F030D040F04100320
:100536001104150416031504110410661504160497
:100546001767160415041604170317021503160376
:100556001767160415041604170317021503160366
:100566001767160415041604170317021503160356
:100576001703160415041604170317011A031904A2
:10058600190419041704170416041604160416048D
:100596001604160415041504160416031766150426
:1005A6001604170416041604150415031A04190470
:1005B6001904190419041704170417041704160458
:1005C60016041604160416041504160416031766F4
:1005D60015041604170416041604150415040F044E
:1005E6001003150311030F041004100310040F0465
:1005F60010040F041003150315031604170417013E
:100606001A04190419041904190417041704170401
:100616001704160416041604160416041504160404
:100626001603170317671504150416041704160492
:100636001604150415041A041904190419041904D6
:1006460017041704170417041604160416041604D0
:100656001604150416041603170317671504150464
:100666001604170416041604150415040F041003C3
:10067600150311030F041004100210030F041003D6
:100686001503150316041704170217670F04100342
:10069600150311030F0410041003150315031604A4
:1006A6001604160216041504150416041767160414
:1006B6001603150415041500170011021703190374
:1006C6001A0319031702160215001503150416045A
:1006D60017031604160416041504100310661004F6
:1006E6000F041003150415041504160417031766E2
:1006F600150416041703160416041604150410032D
:10070600106610040F0410041504150415041504CE
:10071600170416031666170416041767170417043A
:100726001A0419031966150410041567150415042F
:1007360016041703176610040F0410031504150496
:1007460015041604170317031703160415041104DA
:10075600100310040F040F0410041003106717048D
:1007660016041767170417041A04190319661504E3
:1007760010041567150415041604170317661004EC
:100786000F041003150415041504160417031703A4
:100796001703160415041103100310040F040F04A5
:1007A60010041003106717031667150415041104C7
:1007B60010031001170410041504170416040F047F
:1007C60011040D040F020F040F041104160417047C
:1007D60010041504170416040F0411040D040F0267
:1007E6000F040F041104160417041004150417044B
:1007F60016040F0411040D040F020F040F04110454
:100806001604170410041504170416040F04110423
:100816000D030F020F040F0411041604190115002D
:0408260015160000A3
:060E4600013B00013C002D
:100E0300D3EF9400EE940040147D7C7C00ED1D70C4
:0D0E1300011CED4C70F7EF1F70E61E80E330
:010E200022AF
:100E2100D2A5753EFF7540FF853E8D85408B438978
:0C0E310011D2A9C2ABC28CC28ED2AF227B
:03000B00020E3DA5
:090E3D00B2A5853D8C853F8A3287
:0E082A00750C00750D02750E01750F60E4FD72
:080838008B088A09890A8D0B67
:10084000E4F528E528250BFFD3940B401A74F42F08
:1008500025E02416F582E43400F58374019325E045
:10086000FFE49333FE8013EF25E02416F582E43491
:1008700000F583E493FE740193FFE52825E024103E
:10088000F8A60608A607E50D6401450C7018E528D2
:1008900025E02410F8C000E6FE08E67802CEC31377
:1008A000CE13D8F9801EE50D6403450C701CE528B5
:1008B00025E02410F8C000E6FE08E67802C333CE37
:1008C00033CED8F9D000A60608F60528E528640C32
:1008D0006003020843E4F533F534AB08AA09A90A1A
:1008E000853482853383120AFA600D74022534F54B
:1008F00034E43533F53380E2E4F529F52AAB08AA70
:1009000009A90A852A82852983120AFAF535E52A7A
:100910002401FFE435298F82F583120AFAF536ACFB
:100920000EAD0F7E2E7FE0120B278E2B8F2CE52C29
:100930007802CEC313CE13D8F9F5328E317802C3C4
:1009400033CE33CED8F9FF7C007D05120B27C3E5EB
:10095000329FF532E5319EF531C28CD28EC3E52A45
:100960009534E52995334003020AF720B303020AC0
:10097000F7E53575F00A8485F037E53575F00A84BA
:1009800075F00A84ADF0E53575F06484FFE53790C5
:10099000002D932F25E02410F8E6FE08E6FFE5374A
:1009A0006047BD010BEF7802CEC313CE13D8F9FF19
:1009B000BD030BEF7802C333CE33CED8F9FFAB07BC
:1009C000AA06E4F9F87F507EC3FDFC120D25E47BF6
:1009D0000AFAF9F8120B7CC3E49FFFE49EF53D8F01
:1009E0003FF58CE53F240CF58AE53675F00A84E581
:1009F000F090003593F538E53675F00A8475F00A05
:100A00008485F039E53675F06484F53AE538FD7C87
:100A100000AE2BAF2C120B27AB07AA06E53AB401A8
:100A20000BEAC313FEEB132BFBEE3AFAE539640134
:100A3000603DE539702EE538D39404500DC3EB9535
:100A400032F52EEA9531F52D8029EBAE027802C3FE
:100A500033CE33CED8F9FF7C007D05120B278E2DC7
:100A60008F2E800FEAC313F52DEB13F52E80048A29
:100A70002D8B2EE5377004F52DF52EC3EB952EF555
:100A800030EA952DF52FE537601BD28C852E28E5B1
:100A900028D39400400F308FFD853E8D85408BC25A
:100AA0008F152880EAE530452F601DC28CD2A585C0
:100AB0003028E528D39400400F308FFD853E8D858A
:100AC000408BC28F152880EA7402252AF52AE43566
:100AD00029F529AB08AA09A90A852A82F583120AF1
:100AE000FAF535E52A2401FFE435298F82F58312D2
:090AF0000AFAF53602095DD2A5EF
:010AF90022DA
:03000300020DD912
:100DD900C0E0C0D075D000C004C005C006C0077F00
:100DE9000A7E00120E0320B204B28CB28ED007D054
:0A0DF90006D005D004D0D0D0E032BF
:03001300020DA932
:100DA900C0E0C0D075D000C004C005C006C0077F30
:100DB9000A7E00120E0320B30A053CE53CB4040385
:100DC900753C00D007D006D005D004D0D0D0E03291
:100D6900D288D28AD2A8D2AA120E21E53C146012E6
:100D790014601714601F240370F17BFF7A00793C1B
:100D8900800E7BFF7A01799480067BFF7A0279686D
:100D990012082A80D67BFF7A04791E12082A80CB92
:03000000020C9956
:0C0C9900787FE4F6D8FD758140020CE085
:100AFA00BB010CE58229F582E5833AF583E02250B1
:100B0A0006E92582F8E622BBFE06E92582F8E222FA
:0D0B1A00E58229F582E5833AF583E4932214
:100B2700BC000BBE0029EF8DF084FFADF022E4CCB2
:100B3700F875F008EF2FFFEE33FEEC33FCEE9DEC7B
:100B4700984005FCEE9DFE0FD5F0E9E4CEFD22EDC1
:100B5700F8F5F0EE8420D21CFEADF075F008EF2F0B
:100B6700FFED33FD4007985006D5F0F222C398FDFC
:050B77000FD5F0EA2299
:100B7C00E88FF0A4CC8BF0A42CFCE98EF0A42CFC18
:100B8C008AF0EDA42CFCEA8EF0A4CDA8F08BF0A496
:100B9C002DCC3825F0FDE98FF0A42CCD35F0FCEBF5
:100BAC008EF0A4FEA9F0EB8FF0A4CFC5F02ECD39BA
:0F0BBC00FEE43CFCEAA42DCE35F0FDE43CFC2227
:100D2500C2D5E830E70FB2D5E4C39BFBE49AFAE4F9
:100D350099F9E498F8EC30E717B2D5120D5B120C6F
:100D450007E4C39BFBE49AFAE499F9E498F8800375
:100D5500120C0730D50DE4C39FFFE49EFEE49DFD14
:040D6500E49CFC22EC
:100CA500020D69E493A3F8E493A34003F68001F2EF
:100CB50008DFF48029E493A3F85407240CC8C33350
:100CC500C4540F4420C8834004F456800146F6DF1F
:100CD500E4800B0102040810204080900E46E47E5B
:100CE500019360BCA3FF543F30E509541FFEE49314
:100CF500A360010ECF54C025E060A840B8E493A3DB
:100D0500FAE493A3F8E493A3C8C582C8CAC583CA05
:100D1500F0A3C8C582C8CAC583CADFE9DEE780BEBD
:010E4C0000A5
:100BCB0075F008758200EF2FFFEE33FECD33CDCCE1
:100BDB0033CCC58233C5829BED9AEC99E582984064
:100BEB000CF582EE9BFEED9AFDEC99FC0FD5F0D641
:100BFB00E4CEFBE4CDFAE4CCF9A88222B800C1B96B
:100C0B000059BA002DEC8BF084CFCECDFCE5F0CBA8
:100C1B00F97818EF2FFFEE33FEED33FDEC33FCEBE1
:100C2B0033FB10D703994004EB99FB0FD8E5E4F99C
:100C3B00FA227818EF2FFFEE33FEED33FDEC33FC89
:100C4B00C933C910D7059BE99A4007EC9BFCE99A7D
:100C5B00F90FD8E0E4C9FAE4CCFB2275F010EF2FC2
:100C6B00FFEE33FEED33FDCC33CCC833C810D707C2
:100C7B009BEC9AE899400AED9BFDEC9AFCE899F8FD
:0E0C8B000FD5F0DAE4CDFBE4CCFAE4C8F92290
:00000001FF
